{
  "_format": "hh-sol-artifact-1",
  "contractName": "TransparentCharity",
  "sourceName": "contracts/TransparentCharity.sol",
  "abi": [
    {
      "anonymous": false,
      "inputs": [
        {
          "indexed": true,
          "internalType": "uint256",
          "name": "projectId",
          "type": "uint256"
        },
        {
          "indexed": false,
          "internalType": "bool",
          "name": "isActive",
          "type": "bool"
        }
      ],
      "name": "CharityProjectUpdated",
      "type": "event"
    },
    {
      "anonymous": false,
      "inputs": [
        {
          "indexed": true,
          "internalType": "address",
          "name": "donor",
          "type": "address"
        },
        {
          "indexed": true,
          "internalType": "uint256",
          "name": "projectId",
          "type": "uint256"
        },
        {
          "indexed": false,
          "internalType": "uint256",
          "name": "amount",
          "type": "uint256"
        }
      ],
      "name": "DonationMade",
      "type": "event"
    },
    {
      "anonymous": false,
      "inputs": [
        {
          "indexed": false,
          "internalType": "address",
          "name": "donor",
          "type": "address"
        },
        {
          "indexed": true,
          "internalType": "uint256",
          "name": "projectId",
          "type": "uint256"
        },
        {
          "indexed": false,
          "internalType": "uint256",
          "name": "amount",
          "type": "uint256"
        }
      ],
      "name": "FundsDepositedToBeneficiary",
      "type": "event"
    },
    {
      "anonymous": false,
      "inputs": [
        {
          "indexed": false,
          "internalType": "address",
          "name": "donor",
          "type": "address"
        },
        {
          "indexed": false,
          "internalType": "uint256",
          "name": "amount",
          "type": "uint256"
        }
      ],
      "name": "FundsRefunded",
      "type": "event"
    },
    {
      "anonymous": false,
      "inputs": [
        {
          "indexed": true,
          "internalType": "address",
          "name": "beneficiary",
          "type": "address"
        },
        {
          "indexed": true,
          "internalType": "uint256",
          "name": "projectId",
          "type": "uint256"
        }
      ],
      "name": "ProjectApproved",
      "type": "event"
    },
    {
      "anonymous": false,
      "inputs": [
        {
          "indexed": false,
          "internalType": "address",
          "name": "beneficiary",
          "type": "address"
        },
        {
          "indexed": false,
          "internalType": "uint256",
          "name": "amount",
          "type": "uint256"
        }
      ],
      "name": "TokenSpentInStore",
      "type": "event"
    },
    {
      "anonymous": false,
      "inputs": [
        {
          "indexed": true,
          "internalType": "address",
          "name": "beneficiary",
          "type": "address"
        },
        {
          "indexed": false,
          "internalType": "uint256",
          "name": "tokenAmount",
          "type": "uint256"
        }
      ],
      "name": "TokensAllocatedToBeneficiary",
      "type": "event"
    },
    {
      "anonymous": false,
      "inputs": [
        {
          "indexed": true,
          "internalType": "address",
          "name": "storeOwner",
          "type": "address"
        },
        {
          "indexed": false,
          "internalType": "uint256",
          "name": "tokenAmount",
          "type": "uint256"
        }
      ],
      "name": "TokensExchangedForMoney",
      "type": "event"
    },
    {
      "inputs": [
        {
          "internalType": "string",
          "name": "productId",
          "type": "string"
        },
        {
          "internalType": "string",
          "name": "productName",
          "type": "string"
        },
        {
          "internalType": "uint256",
          "name": "price",
          "type": "uint256"
        }
      ],
      "name": "addProduct",
      "outputs": [],
      "stateMutability": "nonpayable",
      "type": "function"
    },
    {
      "inputs": [
        {
          "internalType": "uint256",
          "name": "projectId",
          "type": "uint256"
        },
        {
          "internalType": "bool",
          "name": "approve",
          "type": "bool"
        }
      ],
      "name": "approveBeneficiaryProject",
      "outputs": [],
      "stateMutability": "nonpayable",
      "type": "function"
    },
    {
      "inputs": [],
      "name": "c",
      "outputs": [
        {
          "internalType": "string",
          "name": "OrgName",
          "type": "string"
        },
        {
          "internalType": "address",
          "name": "OrgAddress",
          "type": "address"
        },
        {
          "internalType": "string",
          "name": "Desc",
          "type": "string"
        },
        {
          "internalType": "uint256",
          "name": "orgBalance",
          "type": "uint256"
        }
      ],
      "stateMutability": "view",
      "type": "function"
    },
    {
      "inputs": [
        {
          "internalType": "uint256",
          "name": "projectId",
          "type": "uint256"
        }
      ],
      "name": "checkProjectCompletion",
      "outputs": [],
      "stateMutability": "nonpayable",
      "type": "function"
    },
    {
      "inputs": [],
      "name": "cooperativeStore",
      "outputs": [
        {
          "internalType": "string",
          "name": "storeName",
          "type": "string"
        },
        {
          "internalType": "address payable",
          "name": "storeOwner",
          "type": "address"
        },
        {
          "internalType": "uint256",
          "name": "balance",
          "type": "uint256"
        }
      ],
      "stateMutability": "view",
      "type": "function"
    },
    {
      "inputs": [
        {
          "internalType": "string",
          "name": "_name",
          "type": "string"
        },
        {
          "internalType": "string",
          "name": "_rescueInformation",
          "type": "string"
        }
      ],
      "name": "createBeneficiaryAccount",
      "outputs": [],
      "stateMutability": "nonpayable",
      "type": "function"
    },
    {
      "inputs": [
        {
          "internalType": "string",
          "name": "_title",
          "type": "string"
        },
        {
          "internalType": "string",
          "name": "_desc",
          "type": "string"
        },
        {
          "internalType": "string",
          "name": "_image",
          "type": "string"
        },
        {
          "internalType": "uint256",
          "name": "_goalAmount",
          "type": "uint256"
        },
        {
          "internalType": "uint256",
          "name": "_deadline",
          "type": "uint256"
        }
      ],
      "name": "createCharityProject",
      "outputs": [
        {
          "internalType": "uint256",
          "name": "",
          "type": "uint256"
        }
      ],
      "stateMutability": "nonpayable",
      "type": "function"
    },
    {
      "inputs": [
        {
          "internalType": "string",
          "name": "_storeName",
          "type": "string"
        }
      ],
      "name": "createCooperativeStore",
      "outputs": [],
      "stateMutability": "nonpayable",
      "type": "function"
    },
    {
      "inputs": [
        {
          "internalType": "string",
          "name": "_name",
          "type": "string"
        }
      ],
      "name": "createDonorAccount",
      "outputs": [],
      "stateMutability": "nonpayable",
      "type": "function"
    },
    {
      "inputs": [
        {
          "internalType": "string",
          "name": "orgName",
          "type": "string"
        },
        {
          "internalType": "string",
          "name": "description",
          "type": "string"
        }
      ],
      "name": "createOrganization",
      "outputs": [],
      "stateMutability": "nonpayable",
      "type": "function"
    },
    {
      "inputs": [
        {
          "internalType": "uint256",
          "name": "amount",
          "type": "uint256"
        }
      ],
      "name": "depositFunds",
      "outputs": [],
      "stateMutability": "payable",
      "type": "function"
    },
    {
      "inputs": [
        {
          "internalType": "uint256",
          "name": "projectId",
          "type": "uint256"
        }
      ],
      "name": "donateToProject",
      "outputs": [],
      "stateMutability": "payable",
      "type": "function"
    },
    {
      "inputs": [],
      "name": "getAllProducts",
      "outputs": [
        {
          "components": [
            {
              "internalType": "string",
              "name": "productId",
              "type": "string"
            },
            {
              "internalType": "string",
              "name": "productName",
              "type": "string"
            },
            {
              "internalType": "uint256",
              "name": "price",
              "type": "uint256"
            }
          ],
          "internalType": "struct TransparentCharity.Product[]",
          "name": "",
          "type": "tuple[]"
        }
      ],
      "stateMutability": "view",
      "type": "function"
    },
    {
      "inputs": [],
      "name": "getApprovedProjects",
      "outputs": [
        {
          "components": [
            {
              "internalType": "address payable",
              "name": "beneficiary",
              "type": "address"
            },
            {
              "internalType": "string",
              "name": "name",
              "type": "string"
            },
            {
              "internalType": "string",
              "name": "title",
              "type": "string"
            },
            {
              "internalType": "string",
              "name": "desc",
              "type": "string"
            },
            {
              "internalType": "string",
              "name": "image",
              "type": "string"
            },
            {
              "internalType": "uint256",
              "name": "goalAmount",
              "type": "uint256"
            },
            {
              "internalType": "uint256",
              "name": "currentAmount",
              "type": "uint256"
            },
            {
              "internalType": "uint256",
              "name": "deadline",
              "type": "uint256"
            },
            {
              "internalType": "bool",
              "name": "isActive",
              "type": "bool"
            },
            {
              "internalType": "address[]",
              "name": "donators",
              "type": "address[]"
            },
            {
              "internalType": "uint256[]",
              "name": "donations",
              "type": "uint256[]"
            }
          ],
          "internalType": "struct TransparentCharity.CharityProject[]",
          "name": "",
          "type": "tuple[]"
        }
      ],
      "stateMutability": "view",
      "type": "function"
    },
    {
      "inputs": [],
      "name": "getBeneficiaryBalance",
      "outputs": [
        {
          "internalType": "uint256",
          "name": "",
          "type": "uint256"
        }
      ],
      "stateMutability": "view",
      "type": "function"
    },
    {
      "inputs": [],
      "name": "getBeneficiaryDetails",
      "outputs": [
        {
          "internalType": "string",
          "name": "",
          "type": "string"
        },
        {
          "internalType": "string",
          "name": "",
          "type": "string"
        },
        {
          "internalType": "address",
          "name": "",
          "type": "address"
        },
        {
          "internalType": "uint256",
          "name": "",
          "type": "uint256"
        }
      ],
      "stateMutability": "view",
      "type": "function"
    },
    {
      "inputs": [],
      "name": "getBeneficiaryTransactionHistory",
      "outputs": [
        {
          "internalType": "uint256[]",
          "name": "",
          "type": "uint256[]"
        }
      ],
      "stateMutability": "view",
      "type": "function"
    },
    {
      "inputs": [],
      "name": "getCharityProjects",
      "outputs": [
        {
          "components": [
            {
              "internalType": "address payable",
              "name": "beneficiary",
              "type": "address"
            },
            {
              "internalType": "string",
              "name": "name",
              "type": "string"
            },
            {
              "internalType": "string",
              "name": "title",
              "type": "string"
            },
            {
              "internalType": "string",
              "name": "desc",
              "type": "string"
            },
            {
              "internalType": "string",
              "name": "image",
              "type": "string"
            },
            {
              "internalType": "uint256",
              "name": "goalAmount",
              "type": "uint256"
            },
            {
              "internalType": "uint256",
              "name": "currentAmount",
              "type": "uint256"
            },
            {
              "internalType": "uint256",
              "name": "deadline",
              "type": "uint256"
            },
            {
              "internalType": "bool",
              "name": "isActive",
              "type": "bool"
            },
            {
              "internalType": "address[]",
              "name": "donators",
              "type": "address[]"
            },
            {
              "internalType": "uint256[]",
              "name": "donations",
              "type": "uint256[]"
            }
          ],
          "internalType": "struct TransparentCharity.CharityProject[]",
          "name": "",
          "type": "tuple[]"
        }
      ],
      "stateMutability": "view",
      "type": "function"
    },
    {
      "inputs": [],
      "name": "getCooperativeStoreDetails",
      "outputs": [
        {
          "internalType": "string",
          "name": "storeName",
          "type": "string"
        },
        {
          "internalType": "address payable",
          "name": "storeOwner",
          "type": "address"
        },
        {
          "internalType": "uint256",
          "name": "balance",
          "type": "uint256"
        },
        {
          "internalType": "string[]",
          "name": "productIds",
          "type": "string[]"
        }
      ],
      "stateMutability": "view",
      "type": "function"
    },
    {
      "inputs": [],
      "name": "getDonorAccountBalance",
      "outputs": [
        {
          "internalType": "uint256",
          "name": "",
          "type": "uint256"
        }
      ],
      "stateMutability": "view",
      "type": "function"
    },
    {
      "inputs": [],
      "name": "getDonorDetails",
      "outputs": [
        {
          "internalType": "string",
          "name": "",
          "type": "string"
        },
        {
          "internalType": "uint256",
          "name": "",
          "type": "uint256"
        },
        {
          "internalType": "address",
          "name": "",
          "type": "address"
        }
      ],
      "stateMutability": "view",
      "type": "function"
    },
    {
      "inputs": [],
      "name": "getDonorTransactionHistory",
      "outputs": [
        {
          "internalType": "uint256[]",
          "name": "",
          "type": "uint256[]"
        }
      ],
      "stateMutability": "view",
      "type": "function"
    },
    {
      "inputs": [
        {
          "internalType": "string",
          "name": "productId",
          "type": "string"
        }
      ],
      "name": "getProduct",
      "outputs": [
        {
          "components": [
            {
              "internalType": "string",
              "name": "productId",
              "type": "string"
            },
            {
              "internalType": "string",
              "name": "productName",
              "type": "string"
            },
            {
              "internalType": "uint256",
              "name": "price",
              "type": "uint256"
            }
          ],
          "internalType": "struct TransparentCharity.Product",
          "name": "",
          "type": "tuple"
        }
      ],
      "stateMutability": "view",
      "type": "function"
    },
    {
      "inputs": [
        {
          "internalType": "uint256",
          "name": "projectId",
          "type": "uint256"
        }
      ],
      "name": "getProjectDonators",
      "outputs": [
        {
          "internalType": "address[]",
          "name": "",
          "type": "address[]"
        }
      ],
      "stateMutability": "view",
      "type": "function"
    },
    {
      "inputs": [
        {
          "internalType": "uint256",
          "name": "projectId",
          "type": "uint256"
        }
      ],
      "name": "getProjectStatus",
      "outputs": [
        {
          "internalType": "string",
          "name": "",
          "type": "string"
        },
        {
          "internalType": "string",
          "name": "",
          "type": "string"
        },
        {
          "internalType": "string",
          "name": "",
          "type": "string"
        },
        {
          "internalType": "string",
          "name": "",
          "type": "string"
        },
        {
          "internalType": "uint256",
          "name": "",
          "type": "uint256"
        },
        {
          "internalType": "uint256",
          "name": "",
          "type": "uint256"
        },
        {
          "internalType": "uint256",
          "name": "",
          "type": "uint256"
        },
        {
          "internalType": "address",
          "name": "",
          "type": "address"
        },
        {
          "internalType": "bool",
          "name": "",
          "type": "bool"
        }
      ],
      "stateMutability": "view",
      "type": "function"
    },
    {
      "inputs": [
        {
          "internalType": "string",
          "name": "productId",
          "type": "string"
        }
      ],
      "name": "spendTokens",
      "outputs": [],
      "stateMutability": "payable",
      "type": "function"
    },
    {
      "inputs": [
        {
          "internalType": "string",
          "name": "_rescueInformation",
          "type": "string"
        }
      ],
      "name": "updateRescueInformation",
      "outputs": [],
      "stateMutability": "nonpayable",
      "type": "function"
    }
  ],
  "bytecode": "0x608060405234801561001057600080fd5b506139eb806100206000396000f3fe60806040526004361061019c5760003560e01c80639675c009116100ec578063c32905a51161008a578063cd076cca11610064578063cd076cca146104a9578063d4af9c1f146104be578063da29b34f146104d3578063f28ea1c1146104f357600080fd5b8063c32905a51461044f578063c3da42b814610464578063c9a4fa741461048957600080fd5b8063a511b071116100c6578063a511b071146103b9578063aac0b47f146103e6578063abc0e1751461040a578063b2c5cc071461042a57600080fd5b80639675c009146103405780639fb7667414610375578063a411ef201461039957600080fd5b80635b507b441161015957806368111cce1161013357806368111cce146102b957806378732593146102e657806383357c041461030657806394f9413f1461032b57600080fd5b80635b507b44146102565780635d38f563146102785780635e9aac221461028b57600080fd5b806302ee3a52146101a1578063057323aa146101cc5780631281ddab146101ee5780633b76594d14610210578063461b7a1d1461022357806356adb06f14610243575b600080fd5b3480156101ad57600080fd5b506101b6610513565b6040516101c3919061300a565b60405180910390f35b3480156101d857600080fd5b506101ec6101e736600461310f565b6107ef565b005b3480156101fa57600080fd5b5061020361086e565b6040516101c391906131c0565b6101ec61021e3660046132f7565b610d28565b34801561022f57600080fd5b506101ec61023e3660046132f7565b610db9565b6101ec6102513660046132f7565b610e9b565b34801561026257600080fd5b5061026b611270565b6040516101c39190613310565b6101ec61028636600461310f565b611310565b34801561029757600080fd5b506102ab6102a636600461332a565b61156e565b6040519081526020016101c3565b3480156102c557600080fd5b506102d96102d436600461310f565b611834565b6040516101c391906133c4565b3480156102f257600080fd5b506101ec61030136600461310f565b6119b7565b34801561031257600080fd5b5061031b611a0c565b6040516101c394939291906133d7565b34801561033757600080fd5b506102ab611b9c565b34801561034c57600080fd5b5061036061035b3660046132f7565b611bf0565b6040516101c399989796959493929190613463565b34801561038157600080fd5b5061038a611ee0565b6040516101c3939291906134ec565b3480156103a557600080fd5b506101ec6103b436600461351a565b611f88565b3480156103c557600080fd5b506103d96103d43660046132f7565b612069565b6040516101c3919061357e565b3480156103f257600080fd5b506103fb612157565b6040516101c3939291906135cb565b34801561041657600080fd5b506101ec6104253660046135fe565b612254565b34801561043657600080fd5b5061043f6123c5565b6040516101c39493929190613633565b34801561045b57600080fd5b5061020361255c565b34801561047057600080fd5b5061047961290d565b6040516101c39493929190613675565b34801561049557600080fd5b506101ec6104a436600461310f565b612a48565b3480156104b557600080fd5b506102ab612b1c565b3480156104ca57600080fd5b5061026b612b70565b3480156104df57600080fd5b506101ec6104ee36600461351a565b612c0e565b3480156104ff57600080fd5b506101ec61050e3660046136bb565b612cd7565b600b5460609060079060008167ffffffffffffffff8111156105375761053761306c565b60405190808252806020026020018201604052801561058c57816020015b61057960405180606001604052806060815260200160608152602001600081525090565b8152602001906001900390816105555790505b5090506000805b838110156107e55760008560040182815481106105b2576105b2613728565b9060005260206000200180546105c79061373e565b80601f01602080910402602001604051908101604052809291908181526020018280546105f39061373e565b80156106405780601f1061061557610100808354040283529160200191610640565b820191906000526020600020905b81548152906001019060200180831161062357829003601f168201915b505050505090506000866003018260405161065b9190613778565b90815260200160405180910390206040518060600160405290816000820180546106849061373e565b80601f01602080910402602001604051908101604052809291908181526020018280546106b09061373e565b80156106fd5780601f106106d2576101008083540402835291602001916106fd565b820191906000526020600020905b8154815290600101906020018083116106e057829003601f168201915b505050505081526020016001820180546107169061373e565b80601f01602080910402602001604051908101604052809291908181526020018280546107429061373e565b801561078f5780601f106107645761010080835404028352916020019161078f565b820191906000526020600020905b81548152906001019060200180831161077257829003601f168201915b505050505081526020016002820154815250509050808585815181106107b7576107b7613728565b602002602001018190525083806107cd906137aa565b945050505080806107dd906137aa565b915050610593565b5090949350505050565b6008546001600160a01b0316156108455760405162461bcd60e51b815260206004820152601560248201527429ba37b9329030b63932b0b23c9032bc34b9ba399760591b60448201526064015b60405180910390fd5b60076108518282613812565b5050600880546001600160a01b0319163390811790915531600955565b60606000805b600c548110156108cd57600c818154811061089157610891613728565b600091825260209091206008600b90920201015460ff16156108bb57816108b7816137aa565b9250505b806108c5816137aa565b915050610874565b5060008167ffffffffffffffff8111156108e9576108e961306c565b60405190808252806020026020018201604052801561092257816020015b61090f612e5b565b8152602001906001900390816109075790505b5090506000805b600c54811015610d1f57600c818154811061094657610946613728565b600091825260209091206008600b90920201015460ff1615610d0d57600c818154811061097557610975613728565b6000918252602091829020604080516101608101909152600b9092020180546001600160a01b0316825260018101805492939192918401916109b69061373e565b80601f01602080910402602001604051908101604052809291908181526020018280546109e29061373e565b8015610a2f5780601f10610a0457610100808354040283529160200191610a2f565b820191906000526020600020905b815481529060010190602001808311610a1257829003601f168201915b50505050508152602001600282018054610a489061373e565b80601f0160208091040260200160405190810160405280929190818152602001828054610a749061373e565b8015610ac15780601f10610a9657610100808354040283529160200191610ac1565b820191906000526020600020905b815481529060010190602001808311610aa457829003601f168201915b50505050508152602001600382018054610ada9061373e565b80601f0160208091040260200160405190810160405280929190818152602001828054610b069061373e565b8015610b535780601f10610b2857610100808354040283529160200191610b53565b820191906000526020600020905b815481529060010190602001808311610b3657829003601f168201915b50505050508152602001600482018054610b6c9061373e565b80601f0160208091040260200160405190810160405280929190818152602001828054610b989061373e565b8015610be55780601f10610bba57610100808354040283529160200191610be5565b820191906000526020600020905b815481529060010190602001808311610bc857829003601f168201915b505050505081526020016005820154815260200160068201548152602001600782015481526020016008820160009054906101000a900460ff1615151515815260200160098201805480602002602001604051908101604052809291908181526020018280548015610c8057602002820191906000526020600020905b81546001600160a01b03168152600190910190602001808311610c62575b50505050508152602001600a8201805480602002602001604051908101604052809291908181526020018280548015610cd857602002820191906000526020600020905b815481526020019060010190808311610cc4575b505050505081525050838381518110610cf357610cf3613728565b60200260200101819052508180610d09906137aa565b9250505b80610d17816137aa565b915050610929565b50909392505050565b336000818152600460205260409020600201546001600160a01b031614610d615760405162461bcd60e51b815260040161083c906138d2565b604051339082156108fc029083906000818181858888f19350505050158015610d8e573d6000803e3d6000fd5b503360009081526004602052604081206001018054839290610db1908490613914565b909155505050565b600c548110610dff5760405162461bcd60e51b8152602060048201526012602482015271125b9d985b1a59081c1c9bda9958dd08125160721b604482015260640161083c565b6000600c8281548110610e1457610e14613728565b60009182526020909120600b90910201600881015490915060ff16610e7b5760405162461bcd60e51b815260206004820152601b60248201527f50726f6a65637420697320616c726561647920696e6163746976650000000000604482015260640161083c565b8060050154816006015403610e975760088101805460ff191690555b5050565b336000818152600460205260409020600201546001600160a01b031614610ed45760405162461bcd60e51b815260040161083c906138d2565b600c5434908210610ef75760405162461bcd60e51b815260040161083c9061392d565b600c8281548110610f0a57610f0a613728565b600091825260209091206008600b90920201015460ff16610f665760405162461bcd60e51b8152602060048201526016602482015275283937b532b1ba1034b9903737ba1030b1ba34bb329760511b604482015260640161083c565b60008111610fc95760405162461bcd60e51b815260206004820152602a60248201527f446f6e6174696f6e20616d6f756e74206d7573742062652067726561746572206044820152693a3430b7103d32b9379760b11b606482015260840161083c565b336000908152600460205260409020600101548111156110215760405162461bcd60e51b815260206004820152601360248201527224b739bab33334b1b4b2b73a10333ab732399760691b604482015260640161083c565b6000600c838154811061103657611036613728565b600091825260208220600b90910201546040516001600160a01b039091169184919081818185875af1925050503d806000811461108f576040519150601f19603f3d011682016040523d82523d6000602084013e611094565b606091505b5050905080156111d85733600090815260046020526040812060010180548492906110c090849061395a565b9091555050336000908152600460209081526040808320868452600301909152812080548492906110f2908490613914565b9250508190555081600c848154811061110d5761110d613728565b90600052602060002090600b0201600601600082825461112d9190613914565b9091555050600c80548490811061114657611146613728565b600091825260208083206009600b9093020191909101805460018101825590835291200180546001600160a01b03191633179055600c80548490811061118e5761118e613728565b60009182526020808320600a600b90930201919091018054600181810183559184528284200185905533835260048083526040842001805491820181558352912001829055611234565b60405162461bcd60e51b815260206004820152602b60248201527f4661696c656420746f2073656e6420646f6e6174696f6e20746f20746865206260448201526a32b732b334b1b4b0b93c9760a91b606482015260840161083c565b604051828152839033907fd97bcdf12fa1d5342fc942da5eadf35c7597f34f8da7274c2b0d2ad9798426799060200160405180910390a3505050565b336000818152600660205260409020600201546060916001600160a01b03909116146112ae5760405162461bcd60e51b815260040161083c9061396d565b336000908152600660209081526040918290206004018054835181840281018401909452808452909183018282801561130657602002820191906000526020600020905b8154815260200190600101908083116112f2575b5050505050905090565b336000818152600660205260409020600201546001600160a01b0316146113495760405162461bcd60e51b815260040161083c9061396d565b600060076003018260405161135e9190613778565b9081526020016040518091039020600201549050600081116113b45760405162461bcd60e51b815260206004820152600f60248201526e125b9d985b1a59081c1c9bd91d58dd608a1b604482015260640161083c565b3360009081526006602052604090206003015481111561140d5760405162461bcd60e51b815260206004820152601460248201527324b739bab33334b1b4b2b73a1032ba3432b9399760611b604482015260640161083c565b6008546040516000916001600160a01b03169034908381818185875af1925050503d806000811461145a576040519150601f19603f3d011682016040523d82523d6000602084013e61145f565b606091505b5050905080156114d657336000908152600660205260408120600301805434929061148b90849061395a565b90915550503360009081526006602090815260408220600401805460018101825590835290822034910181905560098054919290916114cb908490613914565b909155506115319050565b60405162461bcd60e51b815260206004820152602a60248201527f4661696c656420746f2073656e64207061796d656e7420746f2074686520737460448201526937b9329037bbb732b91760b11b606482015260840161083c565b604080513381523460208201527f5c1db759def77e3af13dc4684dfa2bc3e9d07db3f46613c454d327ed70bc6be7910160405180910390a1505050565b3360008181526006602052604081206002015490916001600160a01b03909116146115ab5760405162461bcd60e51b815260040161083c9061396d565b42821061160f5760405162461bcd60e51b815260206004820152602c60248201527f54686520646561646c696e652073686f756c642062652061206461746520696e60448201526b103a343290333aba3ab9329760a11b606482015260840161083c565b611617612e5b565b33600090815260066020526040902080546116319061373e565b80601f016020809104026020016040519081016040528092919081815260200182805461165d9061373e565b80156116aa5780601f1061167f576101008083540402835291602001916116aa565b820191906000526020600020905b81548152906001019060200180831161168d57829003601f168201915b50505050506020820190815260408201889052606082018790526080820186905233825260a08201859052600060c0830181905260e083018590526101008301819052600c8054600181018255915282517fdf6966c971051c3d54ec59162606531493a51404a002842f56009d7e5cf4a8c7600b830290810180546001600160a01b0319166001600160a01b039093169290921782559251919284927fdf6966c971051c3d54ec59162606531493a51404a002842f56009d7e5cf4a8c8909101906117759082613812565b506040820151600282019061178a9082613812565b506060820151600382019061179f9082613812565b50608082015160048201906117b49082613812565b5060a0820151600582015560c0820151600682015560e0820151600782015561010082015160088201805460ff19169115159190911790556101208201518051611808916009840191602090910190612ec0565b50610140820151805161182591600a840191602090910190612f25565b50919998505050505050505050565b61185860405180606001604052806060815260200160608152602001600081525090565b604051600a90611869908490613778565b90815260200160405180910390206040518060600160405290816000820180546118929061373e565b80601f01602080910402602001604051908101604052809291908181526020018280546118be9061373e565b801561190b5780601f106118e05761010080835404028352916020019161190b565b820191906000526020600020905b8154815290600101906020018083116118ee57829003601f168201915b505050505081526020016001820180546119249061373e565b80601f01602080910402602001604051908101604052809291908181526020018280546119509061373e565b801561199d5780601f106119725761010080835404028352916020019161199d565b820191906000526020600020905b81548152906001019060200180831161198057829003601f168201915b505050505081526020016002820154815250509050919050565b336000818152600660205260409020600201546001600160a01b0316146119f05760405162461bcd60e51b815260040161083c9061396d565b336000908152600660205260409020600101610e978282613812565b600854600954600780546060936000938493869390926001600160a01b03169190600b908490611a3b9061373e565b80601f0160208091040260200160405190810160405280929190818152602001828054611a679061373e565b8015611ab45780601f10611a8957610100808354040283529160200191611ab4565b820191906000526020600020905b815481529060010190602001808311611a9757829003601f168201915b5050505050935080805480602002602001604051908101604052809291908181526020016000905b82821015611b88578382906000526020600020018054611afb9061373e565b80601f0160208091040260200160405190810160405280929190818152602001828054611b279061373e565b8015611b745780601f10611b4957610100808354040283529160200191611b74565b820191906000526020600020905b815481529060010190602001808311611b5757829003601f168201915b505050505081526020019060010190611adc565b505050509050935093509350935090919293565b3360008181526004602052604081206002015490916001600160a01b0390911614611bd95760405162461bcd60e51b815260040161083c906138d2565b503360009081526004602052604090206001015490565b6060806060806000806000806000600c805490508a10611c225760405162461bcd60e51b815260040161083c9061392d565b6000600c8b81548110611c3757611c37613728565b90600052602060002090600b02019050806001018160020182600301836004018460050154856006015486600701548760000160009054906101000a90046001600160a01b03168860080160009054906101000a900460ff16888054611c9c9061373e565b80601f0160208091040260200160405190810160405280929190818152602001828054611cc89061373e565b8015611d155780601f10611cea57610100808354040283529160200191611d15565b820191906000526020600020905b815481529060010190602001808311611cf857829003601f168201915b50505050509850878054611d289061373e565b80601f0160208091040260200160405190810160405280929190818152602001828054611d549061373e565b8015611da15780601f10611d7657610100808354040283529160200191611da1565b820191906000526020600020905b815481529060010190602001808311611d8457829003601f168201915b50505050509750868054611db49061373e565b80601f0160208091040260200160405190810160405280929190818152602001828054611de09061373e565b8015611e2d5780601f10611e0257610100808354040283529160200191611e2d565b820191906000526020600020905b815481529060010190602001808311611e1057829003601f168201915b50505050509650858054611e409061373e565b80601f0160208091040260200160405190810160405280929190818152602001828054611e6c9061373e565b8015611eb95780601f10611e8e57610100808354040283529160200191611eb9565b820191906000526020600020905b815481529060010190602001808311611e9c57829003601f168201915b50505050509550995099509950995099509950995099509950509193959799909294969850565b600780548190611eef9061373e565b80601f0160208091040260200160405190810160405280929190818152602001828054611f1b9061373e565b8015611f685780601f10611f3d57610100808354040283529160200191611f68565b820191906000526020600020905b815481529060010190602001808311611f4b57829003601f168201915b50505050600183015460029093015491926001600160a01b031691905083565b6001546001600160a01b031615611fed5760405162461bcd60e51b8152602060048201526024808201527f43686172697479206f7267616e697a6174696f6e20616c72656164792065786960448201526339ba399760e11b606482015260840161083c565b6040805160808101825283815233602082018190529181018390529031606082015260008061201c8582613812565b5060208201516001820180546001600160a01b0319166001600160a01b03909216919091179055604082015160028201906120579082613812565b50606082015181600301559050505050565b6060600c828154811061207e5761207e613728565b600091825260209091206008600b90920201015460ff166120d35760405162461bcd60e51b815260206004820152600f60248201526e125b9d985b1a59081c1c9bda9958dd608a1b604482015260640161083c565b600c82815481106120e6576120e6613728565b90600052602060002090600b020160090180548060200260200160405190810160405280929190818152602001828054801561214b57602002820191906000526020600020905b81546001600160a01b0316815260019091019060200180831161212d575b50505050509050919050565b3360008181526004602052604081206002015460609282916001600160a01b0316146121955760405162461bcd60e51b815260040161083c906138d2565b3360009081526004602052604090206001810154600282015482548392916001600160a01b03169083906121c89061373e565b80601f01602080910402602001604051908101604052809291908181526020018280546121f49061373e565b80156122415780601f1061221657610100808354040283529160200191612241565b820191906000526020600020905b81548152906001019060200180831161222457829003601f168201915b5050505050925093509350935050909192565b6001546001600160a01b031633146122c75760405162461bcd60e51b815260206004820152603060248201527f4f6e6c792043686172697479204f7267616e697a6174696f6e2063616e20636160448201526f3636103a3434b990333ab731ba34b7b760811b606482015260840161083c565b600c5482106122e85760405162461bcd60e51b815260040161083c9061392d565b6000600c83815481106122fd576122fd613728565b60009182526020909120600b90910201600881015490915060ff16156123655760405162461bcd60e51b815260206004820152601a60248201527f50726f6a65637420697320616c7265616479206163746976652e000000000000604482015260640161083c565b811561237b5760088101805460ff191660011790555b600881015460405184917f697d88de79ee5f279b23d936b354199f508c06e0b3c82b336375fb50c1618ab7916123b89160ff161515815260200190565b60405180910390a2505050565b3360008181526006602052604081206002015460609283929182916001600160a01b03909116146124085760405162461bcd60e51b815260040161083c9061396d565b336000908152600660205260409020600281015460038201548254839260018401926001600160a01b039091169184906124419061373e565b80601f016020809104026020016040519081016040528092919081815260200182805461246d9061373e565b80156124ba5780601f1061248f576101008083540402835291602001916124ba565b820191906000526020600020905b81548152906001019060200180831161249d57829003601f168201915b505050505093508280546124cd9061373e565b80601f01602080910402602001604051908101604052809291908181526020018280546124f99061373e565b80156125465780601f1061251b57610100808354040283529160200191612546565b820191906000526020600020905b81548152906001019060200180831161252957829003601f168201915b5050505050925094509450945094505090919293565b6060600c805480602002602001604051908101604052809291908181526020016000905b82821015612904576000848152602090819020604080516101608101909152600b850290910180546001600160a01b0316825260018101805492939192918401916125ca9061373e565b80601f01602080910402602001604051908101604052809291908181526020018280546125f69061373e565b80156126435780601f1061261857610100808354040283529160200191612643565b820191906000526020600020905b81548152906001019060200180831161262657829003601f168201915b5050505050815260200160028201805461265c9061373e565b80601f01602080910402602001604051908101604052809291908181526020018280546126889061373e565b80156126d55780601f106126aa576101008083540402835291602001916126d5565b820191906000526020600020905b8154815290600101906020018083116126b857829003601f168201915b505050505081526020016003820180546126ee9061373e565b80601f016020809104026020016040519081016040528092919081815260200182805461271a9061373e565b80156127675780601f1061273c57610100808354040283529160200191612767565b820191906000526020600020905b81548152906001019060200180831161274a57829003601f168201915b505050505081526020016004820180546127809061373e565b80601f01602080910402602001604051908101604052809291908181526020018280546127ac9061373e565b80156127f95780601f106127ce576101008083540402835291602001916127f9565b820191906000526020600020905b8154815290600101906020018083116127dc57829003601f168201915b505050505081526020016005820154815260200160068201548152602001600782015481526020016008820160009054906101000a900460ff161515151581526020016009820180548060200260200160405190810160405280929190818152602001828054801561289457602002820191906000526020600020905b81546001600160a01b03168152600190910190602001808311612876575b50505050508152602001600a82018054806020026020016040519081016040528092919081815260200182805480156128ec57602002820191906000526020600020905b8154815260200190600101908083116128d8575b50505050508152505081526020019060010190612580565b50505050905090565b60008054819061291c9061373e565b80601f01602080910402602001604051908101604052809291908181526020018280546129489061373e565b80156129955780601f1061296a57610100808354040283529160200191612995565b820191906000526020600020905b81548152906001019060200180831161297857829003601f168201915b505050600184015460028501805494956001600160a01b039092169491935091506129bf9061373e565b80601f01602080910402602001604051908101604052809291908181526020018280546129eb9061373e565b8015612a385780601f10612a0d57610100808354040283529160200191612a38565b820191906000526020600020905b815481529060010190602001808311612a1b57829003601f168201915b5050505050908060030154905084565b3360009081526004602052604090206001015415612aa25760405162461bcd60e51b815260206004820152601760248201527620b1b1b7bab73a1030b63932b0b23c9032bc34b9ba399760491b604482015260640161083c565b3360008181526004602052604090206002810180546001600160a01b0319168317905590316001820155612ad68282613812565b5050600580546001810182556000919091527f036b6384b5eca791c62761152d0c79bb0604c104a5fb6f4eb0703f3154bb3db00180546001600160a01b03191633179055565b3360008181526006602052604081206002015490916001600160a01b0390911614612b595760405162461bcd60e51b815260040161083c9061396d565b503360009081526006602052604090206003015490565b336000818152600460205260409020600201546060916001600160a01b0390911614612bae5760405162461bcd60e51b815260040161083c906138d2565b336000908152600460208181526040928390209091018054835181840281018401909452808452909183018282801561130657602002820191906000526020600020908154815260200190600101908083116112f2575050505050905090565b3360009081526006602052604090208054612c289061373e565b159050612c715760405162461bcd60e51b815260206004820152601760248201527620b1b1b7bab73a1030b63932b0b23c9032bc34b9ba399760491b604482015260640161083c565b336000908152600660205260409020612c8a8382613812565b50336000908152600660205260409020600101612ca78282613812565b50503360008181526006602052604090206002810180546001600160a01b03191683179055903160039091015550565b6008546001600160a01b03163314612d415760405162461bcd60e51b815260206004820152602760248201527f4f6e6c792073746f7265206f776e65722063616e2063616c6c207468697320666044820152663ab731ba34b7b760c91b606482015260840161083c565b604051600a90612d52908590613778565b908152602001604051809103902060020154600014612dac5760405162461bcd60e51b815260206004820152601660248201527550726f6475637420616c72656164792065786973747360501b604482015260640161083c565b604080516060810182528481526020810184905280820183905290518190600a90612dd8908790613778565b90815260405190819003602001902081518190612df59082613812565b5060208201516001820190612e0a9082613812565b5060409190910151600290910155600b80546001810182556000919091527f0175b7a638427703f0dbe7bb9bbf987a2551717b34e79f33b5b1008d1fa01db901612e548582613812565b5050505050565b60405180610160016040528060006001600160a01b031681526020016060815260200160608152602001606081526020016060815260200160008152602001600081526020016000815260200160001515815260200160608152602001606081525090565b828054828255906000526020600020908101928215612f15579160200282015b82811115612f1557825182546001600160a01b0319166001600160a01b03909116178255602090920191600190910190612ee0565b50612f21929150612f60565b5090565b828054828255906000526020600020908101928215612f15579160200282015b82811115612f15578251825591602001919060010190612f45565b5b80821115612f215760008155600101612f61565b60005b83811015612f90578181015183820152602001612f78565b50506000910152565b60008151808452612fb1816020860160208601612f75565b601f01601f19169290920160200192915050565b6000815160608452612fda6060850182612f99565b905060208301518482036020860152612ff38282612f99565b915050604083015160408501528091505092915050565b6000602080830181845280855180835260408601915060408160051b870101925083870160005b8281101561305f57603f1988860301845261304d858351612fc5565b94509285019290850190600101613031565b5092979650505050505050565b634e487b7160e01b600052604160045260246000fd5b600082601f83011261309357600080fd5b813567ffffffffffffffff808211156130ae576130ae61306c565b604051601f8301601f19908116603f011681019082821181831017156130d6576130d661306c565b816040528381528660208588010111156130ef57600080fd5b836020870160208301376000602085830101528094505050505092915050565b60006020828403121561312157600080fd5b813567ffffffffffffffff81111561313857600080fd5b61314484828501613082565b949350505050565b600081518084526020808501945080840160005b838110156131855781516001600160a01b031687529582019590820190600101613160565b509495945050505050565b600081518084526020808501945080840160005b83811015613185578151875295820195908201906001016131a4565b60006020808301818452808551808352604092508286019150828160051b87010184880160005b838110156132e957888303603f19018552815180516001600160a01b0316845261016088820151818a87015261321f82870182612f99565b91505087820151858203898701526132378282612f99565b915050606080830151868303828801526132518382612f99565b925050506080808301518683038288015261326c8382612f99565b60a0858101519089015260c0808601519089015260e080860151908901526101008086015115159089015261012080860151898303828b0152919450925090506132b6838261314c565b9250505061014080830151925085820381870152506132d58183613190565b9689019694505050908601906001016131e7565b509098975050505050505050565b60006020828403121561330957600080fd5b5035919050565b6020815260006133236020830184613190565b9392505050565b600080600080600060a0868803121561334257600080fd5b853567ffffffffffffffff8082111561335a57600080fd5b61336689838a01613082565b9650602088013591508082111561337c57600080fd5b61338889838a01613082565b9550604088013591508082111561339e57600080fd5b506133ab88828901613082565b9598949750949560608101359550608001359392505050565b6020815260006133236020830184612fc5565b6080815260006133ea6080830187612f99565b6001600160a01b038616602084810191909152604084018690528382036060850152845180835282820190600581901b8401830187840160005b8381101561345257601f19878403018552613440838351612f99565b94860194925090850190600101613424565b50909b9a5050505050505050505050565b60006101208083526134778184018d612f99565b9050828103602084015261348b818c612f99565b9050828103604084015261349f818b612f99565b905082810360608401526134b3818a612f99565b6080840198909852505060a081019490945260c08401929092526001600160a01b031660e0830152151561010090910152949350505050565b6060815260006134ff6060830186612f99565b6001600160a01b039490941660208301525060400152919050565b6000806040838503121561352d57600080fd5b823567ffffffffffffffff8082111561354557600080fd5b61355186838701613082565b9350602085013591508082111561356757600080fd5b5061357485828601613082565b9150509250929050565b6020808252825182820181905260009190848201906040850190845b818110156135bf5783516001600160a01b03168352928401929184019160010161359a565b50909695505050505050565b6060815260006135de6060830186612f99565b6020830194909452506001600160a01b0391909116604090910152919050565b6000806040838503121561361157600080fd5b823591506020830135801515811461362857600080fd5b809150509250929050565b6080815260006136466080830187612f99565b82810360208401526136588187612f99565b6001600160a01b0395909516604084015250506060015292915050565b6080815260006136886080830187612f99565b6001600160a01b038616602084015282810360408401526136a98186612f99565b91505082606083015295945050505050565b6000806000606084860312156136d057600080fd5b833567ffffffffffffffff808211156136e857600080fd5b6136f487838801613082565b9450602086013591508082111561370a57600080fd5b5061371786828701613082565b925050604084013590509250925092565b634e487b7160e01b600052603260045260246000fd5b600181811c9082168061375257607f821691505b60208210810361377257634e487b7160e01b600052602260045260246000fd5b50919050565b6000825161378a818460208701612f75565b9190910192915050565b634e487b7160e01b600052601160045260246000fd5b6000600182016137bc576137bc613794565b5060010190565b601f82111561380d57600081815260208120601f850160051c810160208610156137ea5750805b601f850160051c820191505b81811015613809578281556001016137f6565b5050505b505050565b815167ffffffffffffffff81111561382c5761382c61306c565b6138408161383a845461373e565b846137c3565b602080601f831160018114613875576000841561385d5750858301515b600019600386901b1c1916600185901b178555613809565b600085815260208120601f198616915b828110156138a457888601518255948401946001909101908401613885565b50858210156138c25787850151600019600388901b60f8161c191681555b5050505050600190811b01905550565b60208082526022908201527f4f6e6c7920646f6e6f722063616e2063616c6c20746869732066756e6374696f604082015261371760f11b606082015260800190565b8082018082111561392757613927613794565b92915050565b60208082526013908201527224b73b30b634b210383937b532b1ba1024a21760691b604082015260600190565b8181038181111561392757613927613794565b60208082526028908201527f4f6e6c792062656e65666963696172792063616e2063616c6c207468697320666040820152673ab731ba34b7b71760c11b60608201526080019056fea26469706673582212208536760c7e572c7a1a6d4e64e6840b6b8e909db5dbb9b1dfba3ba979cda4efe664736f6c63430008110033",
  "linkReferences": {},
  "deployedLinkReferences": {}
}